:100000000C946B000C9488000C9488000C94E20310
:100010000C9405080C94DE070C9488000C94B70728
:100020000C9488000C9490070C9469070C94420778
:100030000C9488000C9488000C9488000C94880020
:100040000C9488000C9488000C9488000C94880010
:100050000C94880007634236B79BD8A71A396856B4
:1000600018AEBAAB558C1D3CB7CC5763BD6DEDFDDA
:10007000753EF6177231BF000000803F0800000097
:10008000BE922449123EABAAAA2ABECDCCCC4C3E8D
:1000900000000080BEABAAAAAA3E00000000BF007C
:1000A0000000803F0000000000084178D3BB438778
:1000B000D1133D190E3CC3BD4282AD2B3E68EC828C
:1000C00076BED98FE1A93E4C80EFFFBE01C4FF7F11
:1000D0003F000000000011241FBECFE5D8E0DEBFC6
:1000E000CDBF10E0A0E6B0E0E8E1F8E102C0059085
:1000F0000D92A838B107D9F720E0A8E8B0E001C018
:100100001D92A33AB207E1F70E94F4040C940A0C82
:100110000C9400000E94F80188E097E00197F1F745
:100120000E94990381E00E94070380E00E94070378
:1001300085E790E00E948D026EE081E00E94E2017E
:1001400080E890E00E948D0281E008950E945301B2
:100150000E94AD000E94C800089587E990E00E94C7
:10016000B5036AE081E00E94E20183E890E00E942A
:100170008D026AE081E00E94E20160919700709137
:1001800098008091990090919A000E94BA02089577
:10019000CF92DF92EF92FF928BE990E00E94B5033D
:1001A000C0909B00D0909C00E0909D00F0909E003D
:1001B00020E030E040E552E4C701B6010E94F109B9
:1001C00018165CF440E066E480E00E94410340E0E1
:1001D00066E481E00E9441033CC020E030E040E45E
:1001E00052E4C701B6010E94F1098823ACF020E077
:1001F00030E040E552E4C701B6010E9499081816A4
:100200005CF041E06FE580E00E94410340E06FE573
:1002100081E00E9441031DC020E030E040E452E450
:10022000C701B6010E94990888239CF420E030E0C1
:10023000A901C701B6010E94F109882354F041E0E9
:1002400066E480E00E94410341E066E481E00E94B0
:100250004103FF90EF90DF90CF900895CF92DF920F
:10026000EF92FF926B017C0160919300709194007A
:10027000809195009091960020E030E0A9010E94C5
:100280009908882354F0C0929300D0929400E09291
:100290009500F092960081E001C080E0FF90EF9021
:1002A000DF90CF9008958FE990E00E94B5036091B0
:1002B0009F007091A0008091A1009091A2000E94E7
:1002C0002E01089590E0FC01EE0FFF1F8E0F9F1F7F
:1002D000FC01E05AFF4F40E0618180810E9492055D
:1002E000089590E0FC01EE0FFF1F8E0F9F1FFC0191
:1002F000E05AFF4F41E0618180810E94920508959C
:1003000082E00E94620182E08A95F1F782E00E9419
:10031000710108951F93CF93DF93182FC0E6D0E0AB
:1003200084FB442740F96A8589850E94920515FB64
:10033000442740F96D858C850E94920516FB442761
:1003400040F968898F850E949205412F441F4427F8
:10035000441F6B898A890E94920580E00E94620195
:1003600081E00E9462010E948001412F41706A85F4
:1003700089850E94920511FB442740F96D858C8583
:100380000E94920512FB442740F968898F850E94DC
:10039000920513FB442740F96B898A890E949205D4
:1003A00080E00E94620181E00E9462010E9480015F
:1003B00081E0DF91CF911F91089581E00E948A0131
:1003C00081E00895603180F4813031F480E8860F57
:1003D0000E948A0181E00895823041F480EC860F0A
:1003E0000E948A0181E0089580E0089580E00895E8
:1003F000CF93DF9388E097E00197F1F7C0E019C051
:10040000EC2FF0E0CF01880F991FE80FF91FE05A99
:10041000FF4F8081A0E9B0E08C93818111968C938D
:100420001197828112968C931297CD010E94F90444
:10043000CF5FC73028F3C8E0D7E0CE010197F1F7CE
:100440000E94DD0182E00E948A0188E20E948A0106
:1004500086E00E948A0160E081E00E94E2018CE077
:100460000E948A012197F1F70E94DD0181E0DF916E
:10047000CF9108951F93CF93DF93182FC0E6D0E05C
:1004800084FB442740F96A8589850E94920515FB03
:10049000442740F96D858C850E94920516FB442700
:1004A00040F968898F850E949205412F441F442797
:1004B000441F6B898A890E94920580E00E94710125
:1004C00081E00E9462010E948001412F41706A8593
:1004D00089850E94920511FB442740F96D858C8522
:1004E0000E94920512FB442740F968898F850E947B
:1004F000920513FB442740F96B898A890E94920573
:1005000080E00E94710181E00E9462010E948001EE
:1005100081E0DF91CF911F9108950F931F93CF93A7
:10052000DF938C01892B01F1C0E018C0D1E0DC0F12
:100530000F5F1F4F0E943A02D03129F460E082E041
:100540000E94E2010AC0CF51C23038F40E94DD019E
:1005500060E081E00E94E201D0E0CD2FF8018081CF
:100560008111E4CF81E001C080E0DF91CF911F9144
:100570000F910895CF92DF92EF92FF92CF93DF9386
:10058000CDB7DEB72A970FB6F894DEBF0FBECDBF4A
:100590006B017C0120E030E0A9010E9499088111E3
:1005A00005C080E30E943A0281E024C02DEF3FEFB6
:1005B0004FE75FE7C701B6010E9499088823BCF4A2
:1005C00020E030E0A901C701B6010E94F109181628
:1005D00084F420E0AE014F5F5F4FC701B6010E9477
:1005E0009204CE0101960E948D0281E003C080E05A
:1005F00001C080E02A960FB6F894DEBF0FBECDBFD3
:10060000DF91CF91FF90EF90DF90CF9008950F93FF
:100610001F93CF93DF93823060F5882319F08130E8
:10062000A1F029C0C0E9D0E013E01883198301E0EC
:100630000A83CE010E94F904188382E089830A8329
:10064000CE010E94F90481E017C0C0E9D0E003E0C8
:10065000088387E0898311E01A83CE010E94F904A0
:10066000088386E089831A83CE010E94F90481E021
:1006700003C080E001C081E0DF91CF911F910F9115
:100680000895CF93823008F049C0653608F048C01D
:10069000423008F047C0C62F882319F0813009F195
:1006A00043C0442319F0413061F015C040E062E0DE
:1006B00083E00E94920541E063E083E00E9492059E
:1006C0000AC040E063E083E00E94920541E062E0FE
:1006D00083E00E9492056C2F80E00E94820681E0F8
:1006E00026C0442319F0413069F020C040E066E0A4
:1006F00083E00E94920541E067E083E00E9492055A
:1007000081E015C040E067E083E00E94920541E08F
:1007100066E083E00E94920581E009C080E007C0A6
:1007200080E005C080E003C081E001C081E0CF919E
:1007300008951F93CF93DF93C0E9D0E011E01883B1
:1007400019821A83CE010E94F904188382E08983FA
:100750001A82CE010E94F90463E082E00E9413062F
:1007600081E0DF91CF911F910895CF93DF93EC014A
:1007700040E060E081E00E94920585E08A95F1F713
:1007800041E060E081E00E9492058AE18A95F1F7FC
:1007900040E060E081E00E9492056091890070E095
:1007A00080E090E00E94410926E933E44BE050E408
:1007B0000E94F609688379838A839B8381E0DF91B5
:1007C000CF9108951F920F920FB60F9211242F937D
:1007D0003F934F935F936F937F938F939F93AF93C9
:1007E000BF93EF93FF93809188008F5F8093880081
:1007F000813039F40E94DB0662E082E00E94130639
:100800000FC0823069F48CB59DB58093890063E098
:1008100082E00E94130681E00E9420071092880067
:10082000FF91EF91BF91AF919F918F917F916F91C8
:100830005F914F913F912F910F900FBE0F901F909E
:1008400018959C01615090E00CC0D901A90FB11D11
:100850008C91F901E60FF11D40814C9380839F5FDD
:100860006150961790F308954F925F926F927F9226
:100870008F929F92AF92BF92EF92FF920F931F932E
:10088000CF93DF93EA0128013901611571058105D4
:100890009105B9F1812C912C540115C07E01E80C11
:1008A000F91C2AE030E040E050E00E94E80B605D77
:1008B000F7016083622F732F842F952FFFEF8F1A1C
:1008C0009F0AAF0ABF0A611571058105910531F7CD
:1008D0000AC0FE01E80DF91D80E380832FEF821A24
:1008E000920AA20AB20A84149504A604B70488F3F3
:1008F000182D682DCE010E942104C80DD91D188223
:1009000001C010E3812FDF91CF911F910F91FF90D4
:10091000EF90BF90AF909F908F907F906F905F907F
:100920004F9008954F925F926F927F928F929F9215
:10093000BF92CF92DF92EF92FF920F931F93CF93CC
:10094000DF936B017C014A01B22E0E9410092B013A
:100950003C010E943F099B01AC01C701B6010E9406
:100960002C086B017C0100E010E09801A401C30198
:10097000B2010E943404BB2039F1C82FD0E0F40149
:10098000EC0FFD1F8EE280834B2C512C612C712CBF
:10099000C301B2010E943F099B01AC0160E070E01D
:1009A00080E291E40E94630A9B01AC01C701B60199
:1009B0000E94F6092196C80DD91D0E9410099301C5
:1009C0008201AE010E943404DF91CF911F910F91FB
:1009D000FF90EF90DF90CF90BF909F908F907F908F
:1009E0006F905F904F9008950E948A000E94A60029
:1009F000FDCFFC019081943008F08EC08181883059
:100A000008F08CC0913041F138F0923009F444C0C4
:100A1000933009F461C084C09281913071F44AB37B
:100A200021E030E0B90102C0660F771F8A95E2F736
:100A3000CB01842B8ABB81E008954AB321E030E0EA
:100A4000B90102C0660F771F8A95E2F7CB01809546
:100A500084238ABB80E008959281913071F447B37A
:100A600021E030E0B90102C0660F771F8A95E2F7F6
:100A7000CB01842B87BB81E0089547B321E030E0B0
:100A8000B90102C0660F771F8A95E2F7CB01809506
:100A9000842387BB81E008959281913071F444B33F
:100AA00021E030E0B90102C0660F771F8A95E2F7B6
:100AB000CB01842B84BB81E0089544B321E030E076
:100AC000B90102C0660F771F8A95E2F7CB018095C6
:100AD000842384BB81E008959281913071F441B305
:100AE00021E030E0B90102C0660F771F8A95E2F776
:100AF000CB01842B81BB81E0089541B321E030E03C
:100B0000B90102C0660F771F8A95E2F7CB01809585
:100B1000842381BB81E0089580E0089580E00895FA
:100B200080E00895843008F078C0683008F077C01D
:100B3000813011F130F08230D1F1833009F452C0AC
:100B400070C0413061F42BB381E090E002C0880FA7
:100B5000991F6A95E2F7822B8BBB81E008952BB336
:100B600081E090E002C0880F991F6A95E2F78095B6
:100B700082238BBB81E00895413061F428B381E08A
:100B800090E002C0880F991F6A95E2F7822B88BB1C
:100B900081E0089528B381E090E002C0880F991F9A
:100BA0006A95E2F78095822388BB81E00895413001
:100BB00061F425B381E090E002C0880F991F6A9527
:100BC000E2F7822B85BB81E0089525B381E090E0B8
:100BD00002C0880F991F6A95E2F78095822385BB32
:100BE00081E00895413061F422B381E090E002C0D9
:100BF000880F991F6A95E2F7822B82BB81E00895E6
:100C000022B381E090E002C0880F991F6A95E2F755
:100C10008095822382BB81E0089580E0089580E082
:100C2000089581E008959FB790689FBF643008F0F1
:100C300045C0811114C085B78C7F6370682B65BF78
:100C40008BB780648BBFE0E9F0E083E0808382E0D3
:100C500081831282CF010E94F90481E008958130DE
:100C600099F485B7837F6C70682B65BF8BB78068FC
:100C70008BBFE0E9F0E083E0808381831282CF01C3
:100C80000E94F90481E008958230D1F4623021F4A9
:100C900084B78F7B84BF03C084B7806484BF8BB765
:100CA00080628BBFE0E9F0E081E0808382E08183B5
:100CB0001282CF010E94F90481E0089580E0089536
:100CC00080E00895882319F0813069F019C0E0E9C7
:100CD000F0E081E0808393E091838283CF010E94E2
:100CE000F90481E00895E0E9F0E083E0808387E0A3
:100CF000818381E08283CF010E94F90481E008951D
:100D000080E00895CF93653608F04EC0C82F81115A
:100D100022C083B7886483BF83B7816083BF83B7F2
:100D2000806283BF611102C01CBE38C070E080E0E9
:100D300090E00E9441092AE037ED43E250E40E942E
:100D4000F60920E030E040E85FE30E942C080E94B2
:100D500010096CBF23C0813049F585B5886485BD15
:100D600085B5816085BD85B5806285BD611102C094
:100D700013BC14C070E080E090E00E9441092AE0BA
:100D800037ED43E250E40E94F60920E030E040E80D
:100D90005FE30E942C080E94100963BD8C2F0E9403
:100DA0006206811105C005C080E003C080E001C07B
:100DB00081E0CF910895811114C089B78E7F89BFDA
:100DC00088B7816088BF83B7877F83BF83B78F7BF6
:100DD00083BF83B7856083BF83B78D7F83BF81E087
:100DE00008958230A1F489B78F7B89BF88B780646A
:100DF00088BF85B5877F85BD85B58F7B85BD85B56A
:100E0000856085BD85B58D7F85BD81E00895813084
:100E1000A9F41FBC89B78B7F89BF88B7846088BF5E
:100E20008EB5877F8EBD8EB58F7E8EBD8EB585606B
:100E30008EBD8EB58D7F8EBD81E0089580E00895D2
:100E4000811107C013BE12BE1CBE89B789BF81E0E5
:100E50000895813059F41FBC1EBC1DBC1CBC1BBCBA
:100E60001ABC89B78B7F89BF81E00895823041F435
:100E700015BC14BC13BC89B7897F89BF81E0089574
:100E800080E008951F920F920FB60F9211242F93B6
:100E90003F934F935F936F937F938F939F93AF9302
:100EA000BF93EF93FF93E0918E00F0918F0009952F
:100EB000FF91EF91BF91AF919F918F917F916F9132
:100EC0005F914F913F912F910F900FBE0F901F9008
:100ED00018951F920F920FB60F9211242F933F93E4
:100EE0004F935F936F937F938F939F93AF93BF9332
:100EF000EF93FF93E0918E00F0918F000995FF91A1
:100F0000EF91BF91AF919F918F917F916F915F9181
:100F10004F913F912F910F900FBE0F901F901895FA
:100F20001F920F920FB60F9211242F933F934F935E
:100F30005F936F937F938F939F93AF93BF93EF9341
:100F4000FF93E0918C00F0918D000995FF91EF9156
:100F5000BF91AF919F918F917F916F915F914F91D1
:100F60003F912F910F900FBE0F901F9018951F92D9
:100F70000F920FB60F9211242F933F934F935F93CD
:100F80006F937F938F939F93AF93BF93EF93FF9351
:100F9000E0918C00F0918D000995FF91EF91BF9148
:100FA000AF919F918F917F916F915F914F913F9101
:100FB0002F910F900FBE0F901F9018951F920F92B8
:100FC0000FB60F9211242F933F934F935F936F931C
:100FD0007F938F939F93AF93BF93EF93FF93E09192
:100FE0008A00F0918B000995FF91EF91BF91AF912D
:100FF0009F918F917F916F915F914F913F912F9131
:101000000F900FBE0F901F9018951F920F920FB662
:101010000F9211242F933F934F935F936F937F937E
:101020008F939F93AF93BF93EF93FF93E0918A00C9
:10103000F0918B000995FF91EF91BF91AF919F9136
:101040008F917F916F915F914F913F912F910F9071
:101050000FBE0F901F9018955058BB27AA270E94CB
:1010600044080C94B7090E94A90938F00E94B009FD
:1010700020F039F49F3F19F426F40C94A6090EF4DD
:10108000E095E7FB0C94A009E92F0E94C80958F3EA
:10109000BA17620773078407950720F079F4A6F55D
:1010A0000C94EA090EF4E0950B2EBA2FA02D0B013B
:1010B000B90190010C01CA01A0011124FF27591B9D
:1010C00099F0593F50F4503E68F11A16F040A22FA3
:1010D000232F342F4427585FF3CF46953795279514
:1010E000A795F0405395C9F77EF41F16BA0B620B13
:1010F000730B840BBAF09150A1F0FF0FBB1F661F5A
:10110000771F881FC2F70EC0BA0F621F731F841F9C
:1011100048F4879577956795B795F7959E3F08F0C2
:10112000B0CF9395880F08F09927EE0F9795879584
:1011300008950E947C0908F481E008950E94B20895
:101140000C94B7090E94B00958F00E94A90940F018
:1011500029F45F3F29F00C94A00951110C94EB097C
:101160000C94A6090E94C80968F39923B1F355238A
:1011700091F3951B550BBB27AA27621773078407AA
:1011800038F09F5F5F4F220F331F441FAA1FA9F340
:1011900035D00E2E3AF0E0E832D091505040E6952E
:1011A000001CCAF72BD0FE2F29D0660F771F881F8F
:1011B000BB1F261737074807AB07B0E809F0BB0B82
:1011C000802DBF01FF2793585F4F3AF09E3F510596
:1011D00078F00C94A0090C94EB095F3FE4F3983E7F
:1011E000D4F3869577956795B795F7959F5FC9F77F
:1011F000880F911D9695879597F90895E1E0660F00
:10120000771F881FBB1F621773078407BA0720F078
:10121000621B730B840BBA0BEE1F88F7E0950895E1
:101220000E94D00988F09F5798F0B92F9927B7519D
:10123000B0F0E1F0660F771F881F991F1AF0BA957A
:10124000C9F714C0B13091F00E94EA09B1E00895E5
:101250000C94EA09672F782F8827B85F39F0B93FD7
:10126000CCF3869577956795B395D9F73EF490952D
:101270008095709561957F4F8F4F9F4F0895E894AB
:1012800009C097FB3EF490958095709561957F4FCE
:101290008F4F9F4F9923A9F0F92F96E9BB2793957C
:1012A000F695879577956795B795F111F8CFFAF48C
:1012B000BB0F11F460FF1BC06F5F7F4F8F4F9F4FBD
:1012C00016C0882311F096E911C0772321F09EE81B
:1012D000872F762F05C0662371F096E8862F70E081
:1012E00060E02AF09A95660F771F881FDAF7880F5B
:1012F0009695879597F90895990F0008550FAA0BB1
:10130000E0E8FEEF16161706E807F907C0F0121618
:101310001306E407F50798F0621B730B840B950B1B
:1013200039F40A2661F0232B242B252B21F4089570
:101330000A2609F4A140A6958FEF811D811D08950D
:1013400097F99F6780E870E060E008959FEF80EC78
:10135000089500240A94161617061806090608951B
:1013600000240A9412161306140605060895092E81
:101370000394000C11F4882352F0BB0F40F4BF2BF0
:1013800011F460FF04C06F5F7F4F8F4F9F4F089530
:1013900057FD9058440F551F59F05F3F71F0479526
:1013A000880F97FB991F61F09F3F79F0879508950B
:1013B000121613061406551FF2CF4695F1DF08C02A
:1013C000161617061806991FF1CF86957105610547
:1013D00008940895E894BB2766277727CB0197F9EF
:1013E00008950E947C0908F48FEF08950E94090A6D
:1013F0000C94B7090E94A90938F00E94B00920F0A6
:10140000952311F00C94A0090C94A60911240C94B6
:10141000EB090E94C80970F3959FC1F3950F50E046
:10142000551F629FF001729FBB27F00DB11D639F96
:10143000AA27F00DB11DAA1F649F6627B00DA11D3C
:10144000661F829F2227B00DA11D621F739FB00DE2
:10145000A11D621F839FA00D611D221F749F332752
:10146000A00D611D231F849F600D211D822F762FEB
:101470006A2F11249F5750409AF0F1F088234AF0C8
:10148000EE0FFF1FBB1F661F771F881F9150504034
:10149000A9F79E3F510580F00C94A0090C94EB092C
:1014A0005F3FE4F3983ED4F3869577956795B795BB
:1014B000F795E7959F5FC1F7FE2B880F911D9695D5
:1014C000879597F90895FA01EE0FFF1F30962105D1
:1014D0003105A1F16115710561F48038BFE39B0707
:1014E00049F168949038810561F08038BFEF9B071F
:1014F00041F099234AF5FF3FE1053105210519F136
:10150000E8940894E795D901AA2329F4AB2FBE2FBC
:10151000F85FD0F310C0FF5F70F4A695E0F7F739DD
:1015200050F019F0FF3A38F49F779F930DD00F9049
:1015300007FC9058089546F00C94A60960E070E00E
:1015400080E89FE308954FE79F775F934F933F9322
:101550002F930E945E0B2F913F914F915F910E94BC
:10156000F6090C94BB0A29F416F00C94A0090C940B
:10157000EA090C94A6090E94D009A8F39638A0F7AE
:1015800007F80F92E8942BE33AEA48EB5FE70E94F2
:101590000C0A0F920F920F924DB75EB70F920E94F6
:1015A000A60BE4E5F0E00E94ED0A4F915F91EF9108
:1015B000FF91E595EE1FFF1F49F0FE57E0684427B5
:1015C000EE0F441FFA95E1F74195550B0E94200B51
:1015D0000F9007FE0C94140B0895DF93CF931F9385
:1015E0000F93FF92EF92DF927B018C01689406C00B
:1015F000DA2EEF010E94090AFE01E894A5912591D7
:10160000359145915591A6F3EF010E944408FE01E2
:101610009701A801DA9469F7DF90EF90FF900F919E
:101620001F91CF91DF9108959B01AC0160E070E0C4
:1016300080E89FE30C949E080C94A0090C94DA0BAC
:101640000E94D009D8F39923C9F3940F511DA3F335
:101650009150504094F059F0882332F0660F771F74
:10166000881F91505040C1F79E3F51052CF7880FBD
:10167000911D9695879597F908955F3FACF0983E38
:101680009CF0BB27869577956795B79508F4B16070
:101690009395C1F7BB0F58F711F460FFE8CF6F5F68
:1016A0007F4F8F4F9F4FE3CF0C94EB0916F00C94B4
:1016B000DA0B0C94A60968940C94A0090E94D00936
:1016C000A8F39923C1F3AEF3DF93CF931F930F9346
:1016D000FF92C92FDD2788232AF02197660F771FF5
:1016E000881FDAF720E030E040E85FEB9FE38839BD
:1016F00020F0803E38F021968F770E942D08ECE78D
:10170000F0E004C00E942D08E9EAF0E00E94ED0A32
:101710008B01BE01EC01FB2E6F5771097595771F88
:10172000880B990B0E94410928E132E741E35FE30E
:101730000E94090AAF2D9801AE01FF900F911F91F1
:10174000CF91DF910E9444080C94B709FA01DC01A3
:10175000AA0FBB1F9B01AC01BF5728F422273327D8
:101760004427507820C0B75190F4AB2F0024469501
:1017700037952795011CA395D2F3002071F0220F15
:10178000331F441FB395DAF30ED00C942C0861304C
:101790007105A0E88A07B94630F49B01AC016627C1
:1017A000772788279078309621F0208331834283F1
:1017B000538308959F3F31F0915020F4879577959A
:1017C0006795B795880F911D9695879597F9089518
:1017D000A1E21A2EAA1BBB1BFD010DC0AA1FBB1F35
:1017E000EE1FFF1FA217B307E407F50720F0A21BA7
:1017F000B30BE40BF50B661F771F881F991F1A9414
:1018000069F760957095809590959B01AC01BD013D
:08181000CF010895F894FFCF09
:1018180000010100020100030100040100050100AC
:10182800060100070144697374616E63653A20001C
:08183800636D00202020000078
:00000001FF
